{
  "contractName": "Migrations",
  "abi": [
    {
      "inputs": [],
      "stateMutability": "nonpayable",
      "type": "constructor"
    },
    {
      "inputs": [],
      "name": "last_completed_migration",
      "outputs": [
        {
          "internalType": "uint256",
          "name": "",
          "type": "uint256"
        }
      ],
      "stateMutability": "view",
      "type": "function"
    },
    {
      "inputs": [],
      "name": "owner",
      "outputs": [
        {
          "internalType": "address",
          "name": "",
          "type": "address"
        }
      ],
      "stateMutability": "view",
      "type": "function"
    },
    {
      "inputs": [
        {
          "internalType": "uint256",
          "name": "completed",
          "type": "uint256"
        }
      ],
      "name": "setCompleted",
      "outputs": [],
      "stateMutability": "nonpayable",
      "type": "function"
    },
    {
      "inputs": [
        {
          "internalType": "address",
          "name": "new_address",
          "type": "address"
        }
      ],
      "name": "upgrade",
      "outputs": [],
      "stateMutability": "nonpayable",
      "type": "function"
    }
  ],
  "bytecode": "0x608060405234801561000f575f80fd5b50d3801561001b575f80fd5b50d28015610027575f80fd5b50335f806101000a81548173ffffffffffffffffffffffffffffffffffffffff021916908373ffffffffffffffffffffffffffffffffffffffff1602179055506104cd806100745f395ff3fe608060405234801561000f575f80fd5b50d3801561001b575f80fd5b50d28015610027575f80fd5b5060043610610062575f3560e01c80630900f01014610066578063445df0ac146100825780638da5cb5b146100a0578063fdacd576146100be575b5f80fd5b610080600480360381019061007b9190610320565b6100da565b005b61008a6101d7565b6040516100979190610363565b60405180910390f35b6100a86101dd565b6040516100b5919061038b565b60405180910390f35b6100d860048036038101906100d391906103ce565b610200565b005b5f8054906101000a900473ffffffffffffffffffffffffffffffffffffffff1673ffffffffffffffffffffffffffffffffffffffff163373ffffffffffffffffffffffffffffffffffffffff1614610167576040517f08c379a000000000000000000000000000000000000000000000000000000000815260040161015e90610479565b60405180910390fd5b5f8190508073ffffffffffffffffffffffffffffffffffffffff1663fdacd5766001546040518263ffffffff1660e01b81526004016101a69190610363565b5f604051808303815f87803b1580156101bd575f80fd5b505af11580156101cf573d5f803e3d5ffd5b505050505050565b60015481565b5f8054906101000a900473ffffffffffffffffffffffffffffffffffffffff1681565b5f8054906101000a900473ffffffffffffffffffffffffffffffffffffffff1673ffffffffffffffffffffffffffffffffffffffff163373ffffffffffffffffffffffffffffffffffffffff161461028d576040517f08c379a000000000000000000000000000000000000000000000000000000000815260040161028490610479565b60405180910390fd5b8060018190555050565b5f80fd5b5f74ffffffffffffffffffffffffffffffffffffffffff82169050919050565b6102c48161029b565b81146102ce575f80fd5b50565b5f73ffffffffffffffffffffffffffffffffffffffff82169050919050565b5f6102fa826102d1565b9050919050565b5f8135905061030f816102bb565b610318816102f0565b905092915050565b5f6020828403121561033557610334610297565b5b5f61034284828501610301565b91505092915050565b5f819050919050565b61035d8161034b565b82525050565b5f6020820190506103765f830184610354565b92915050565b610385816102f0565b82525050565b5f60208201905061039e5f83018461037c565b92915050565b6103ad8161034b565b81146103b7575f80fd5b50565b5f813590506103c8816103a4565b92915050565b5f602082840312156103e3576103e2610297565b5b5f6103f0848285016103ba565b91505092915050565b5f82825260208201905092915050565b7f4f6e6c7920746865206f776e65722063616e2063616c6c20746869732066756e5f8201527f6374696f6e2e0000000000000000000000000000000000000000000000000000602082015250565b5f6104636026836103f9565b915061046e82610409565b604082019050919050565b5f6020820190508181035f83015261049081610457565b905091905056fea26474726f6e58221220af1354838da86041f2c015debc82d24da7d49ae0c4d53b146c6b25371378cf7b64736f6c63430008160033",
  "source": "// SPDX-License-Identifier: MIT\npragma solidity ^0.8.0;\n\ncontract Migrations {\n    address public owner;\n    uint public last_completed_migration;\n\n    constructor() {\n        owner = msg.sender;\n    }\n\n    modifier restricted() {\n        require(msg.sender == owner, \"Only the owner can call this function.\");\n        _;\n    }\n\n    function setCompleted(uint completed) public restricted {\n        last_completed_migration = completed;\n    }\n\n    // Upgrade function to upgrade to a new Migrations contract.\n    function upgrade(address new_address) public restricted {\n        Migrations upgraded = Migrations(new_address); \n        upgraded.setCompleted(last_completed_migration); \n    }\n}\n",
  "sourcePath": "/home/georg/Desktop/tron-contracts/contracts/Migrations.sol",
  "compiler": {
    "name": "solc",
    "version": "0.8.22+commit.5ed3e10f.Emscripten.clang"
  },
  "schemaVersion": "2.0.1",
  "updatedAt": "2025-01-31T04:44:35.445Z"
}