{
  "contractName": "TetherToken",
  "abi": [
    {
      "inputs": [],
      "stateMutability": "nonpayable",
      "type": "constructor"
    },
    {
      "inputs": [
        {
          "internalType": "address",
          "name": "spender",
          "type": "address"
        },
        {
          "internalType": "uint256",
          "name": "allowance",
          "type": "uint256"
        },
        {
          "internalType": "uint256",
          "name": "needed",
          "type": "uint256"
        }
      ],
      "name": "ERC20InsufficientAllowance",
      "type": "error"
    },
    {
      "inputs": [
        {
          "internalType": "address",
          "name": "sender",
          "type": "address"
        },
        {
          "internalType": "uint256",
          "name": "balance",
          "type": "uint256"
        },
        {
          "internalType": "uint256",
          "name": "needed",
          "type": "uint256"
        }
      ],
      "name": "ERC20InsufficientBalance",
      "type": "error"
    },
    {
      "inputs": [
        {
          "internalType": "address",
          "name": "approver",
          "type": "address"
        }
      ],
      "name": "ERC20InvalidApprover",
      "type": "error"
    },
    {
      "inputs": [
        {
          "internalType": "address",
          "name": "receiver",
          "type": "address"
        }
      ],
      "name": "ERC20InvalidReceiver",
      "type": "error"
    },
    {
      "inputs": [
        {
          "internalType": "address",
          "name": "sender",
          "type": "address"
        }
      ],
      "name": "ERC20InvalidSender",
      "type": "error"
    },
    {
      "inputs": [
        {
          "internalType": "address",
          "name": "spender",
          "type": "address"
        }
      ],
      "name": "ERC20InvalidSpender",
      "type": "error"
    },
    {
      "anonymous": false,
      "inputs": [
        {
          "indexed": true,
          "internalType": "address",
          "name": "owner",
          "type": "address"
        },
        {
          "indexed": true,
          "internalType": "address",
          "name": "spender",
          "type": "address"
        },
        {
          "indexed": false,
          "internalType": "uint256",
          "name": "value",
          "type": "uint256"
        }
      ],
      "name": "Approval",
      "type": "event"
    },
    {
      "anonymous": false,
      "inputs": [
        {
          "indexed": true,
          "internalType": "address",
          "name": "from",
          "type": "address"
        },
        {
          "indexed": true,
          "internalType": "address",
          "name": "to",
          "type": "address"
        },
        {
          "indexed": false,
          "internalType": "uint256",
          "name": "value",
          "type": "uint256"
        }
      ],
      "name": "Transfer",
      "type": "event"
    },
    {
      "inputs": [
        {
          "internalType": "address",
          "name": "owner",
          "type": "address"
        },
        {
          "internalType": "address",
          "name": "spender",
          "type": "address"
        }
      ],
      "name": "allowance",
      "outputs": [
        {
          "internalType": "uint256",
          "name": "",
          "type": "uint256"
        }
      ],
      "stateMutability": "view",
      "type": "function"
    },
    {
      "inputs": [
        {
          "internalType": "address",
          "name": "spender",
          "type": "address"
        },
        {
          "internalType": "uint256",
          "name": "value",
          "type": "uint256"
        }
      ],
      "name": "approve",
      "outputs": [
        {
          "internalType": "bool",
          "name": "",
          "type": "bool"
        }
      ],
      "stateMutability": "nonpayable",
      "type": "function"
    },
    {
      "inputs": [
        {
          "internalType": "address",
          "name": "account",
          "type": "address"
        }
      ],
      "name": "balanceOf",
      "outputs": [
        {
          "internalType": "uint256",
          "name": "",
          "type": "uint256"
        }
      ],
      "stateMutability": "view",
      "type": "function"
    },
    {
      "inputs": [],
      "name": "decimals",
      "outputs": [
        {
          "internalType": "uint8",
          "name": "",
          "type": "uint8"
        }
      ],
      "stateMutability": "view",
      "type": "function"
    },
    {
      "inputs": [],
      "name": "getLatestPrice",
      "outputs": [
        {
          "internalType": "int256",
          "name": "",
          "type": "int256"
        }
      ],
      "stateMutability": "view",
      "type": "function"
    },
    {
      "inputs": [],
      "name": "name",
      "outputs": [
        {
          "internalType": "string",
          "name": "",
          "type": "string"
        }
      ],
      "stateMutability": "view",
      "type": "function"
    },
    {
      "inputs": [],
      "name": "symbol",
      "outputs": [
        {
          "internalType": "string",
          "name": "",
          "type": "string"
        }
      ],
      "stateMutability": "view",
      "type": "function"
    },
    {
      "inputs": [],
      "name": "totalSupply",
      "outputs": [
        {
          "internalType": "uint256",
          "name": "",
          "type": "uint256"
        }
      ],
      "stateMutability": "view",
      "type": "function"
    },
    {
      "inputs": [
        {
          "internalType": "address",
          "name": "to",
          "type": "address"
        },
        {
          "internalType": "uint256",
          "name": "value",
          "type": "uint256"
        }
      ],
      "name": "transfer",
      "outputs": [
        {
          "internalType": "bool",
          "name": "",
          "type": "bool"
        }
      ],
      "stateMutability": "nonpayable",
      "type": "function"
    },
    {
      "inputs": [
        {
          "internalType": "address",
          "name": "from",
          "type": "address"
        },
        {
          "internalType": "address",
          "name": "to",
          "type": "address"
        },
        {
          "internalType": "uint256",
          "name": "value",
          "type": "uint256"
        }
      ],
      "name": "transferFrom",
      "outputs": [
        {
          "internalType": "bool",
          "name": "",
          "type": "bool"
        }
      ],
      "stateMutability": "nonpayable",
      "type": "function"
    }
  ],
  "bytecode": "0x608060405234801562000010575f80fd5b50d380156200001d575f80fd5b50d280156200002a575f80fd5b506040518060400160405280600b81526020017f546574686572546f6b656e0000000000000000000000000000000000000000008152506040518060400160405280601181526020017f54657468657220555344202855534454290000000000000000000000000000008152508160039081620000a8919062000672565b508060049081620000ba919062000672565b505050735f4ec3df9cbd43714fe2740f5e3616155c5b841960055f6101000a81548173ffffffffffffffffffffffffffffffffffffffff021916908373ffffffffffffffffffffffffffffffffffffffff1602179055506200015233620001266200015860201b60201c565b600a620001349190620008df565b64e8d4a510006200014691906200092f565b6200016060201b60201c565b62000a78565b5f6012905090565b5f73ffffffffffffffffffffffffffffffffffffffff168273ffffffffffffffffffffffffffffffffffffffff1603620001d3575f6040517fec442f05000000000000000000000000000000000000000000000000000000008152600401620001ca9190620009bc565b60405180910390fd5b620001e65f8383620001ea60201b60201c565b5050565b5f73ffffffffffffffffffffffffffffffffffffffff168373ffffffffffffffffffffffffffffffffffffffff16036200023e578060025f828254620002319190620009d7565b925050819055506200030f565b5f805f8573ffffffffffffffffffffffffffffffffffffffff1673ffffffffffffffffffffffffffffffffffffffff1681526020019081526020015f2054905081811015620002ca578381836040517fe450d38c000000000000000000000000000000000000000000000000000000008152600401620002c19392919062000a22565b60405180910390fd5b8181035f808673ffffffffffffffffffffffffffffffffffffffff1673ffffffffffffffffffffffffffffffffffffffff1681526020019081526020015f2081905550505b5f73ffffffffffffffffffffffffffffffffffffffff168273ffffffffffffffffffffffffffffffffffffffff160362000358578060025f8282540392505081905550620003a2565b805f808473ffffffffffffffffffffffffffffffffffffffff1673ffffffffffffffffffffffffffffffffffffffff1681526020019081526020015f205f82825401925050819055505b8173ffffffffffffffffffffffffffffffffffffffff168373ffffffffffffffffffffffffffffffffffffffff167fddf252ad1be2c89b69c2b068fc378daa952ba7f163c4a11628f55a4df523b3ef8360405162000401919062000a5d565b60405180910390a3505050565b5f81519050919050565b7f4e487b71000000000000000000000000000000000000000000000000000000005f52604160045260245ffd5b7f4e487b71000000000000000000000000000000000000000000000000000000005f52602260045260245ffd5b5f60028204905060018216806200048a57607f821691505b602082108103620004a0576200049f62000445565b5b50919050565b5f819050815f5260205f209050919050565b5f6020601f8301049050919050565b5f82821b905092915050565b5f60088302620005047fffffffffffffffffffffffffffffffffffffffffffffffffffffffffffffffff82620004c7565b620005108683620004c7565b95508019841693508086168417925050509392505050565b5f819050919050565b5f819050919050565b5f6200055a620005546200054e8462000528565b62000531565b62000528565b9050919050565b5f819050919050565b62000575836200053a565b6200058d620005848262000561565b848454620004d3565b825550505050565b5f90565b620005a362000595565b620005b08184846200056a565b505050565b5b81811015620005d757620005cb5f8262000599565b600181019050620005b6565b5050565b601f8211156200062657620005f081620004a6565b620005fb84620004b8565b810160208510156200060b578190505b620006236200061a85620004b8565b830182620005b5565b50505b505050565b5f82821c905092915050565b5f620006485f19846008026200062b565b1980831691505092915050565b5f62000662838362000637565b9150826002028217905092915050565b6200067d826200040e565b67ffffffffffffffff81111562000699576200069862000418565b5b620006a5825462000472565b620006b2828285620005db565b5f60209050601f831160018114620006e8575f8415620006d3578287015190505b620006df858262000655565b8655506200074e565b601f198416620006f886620004a6565b5f5b828110156200072157848901518255600182019150602085019450602081019050620006fa565b868310156200074157848901516200073d601f89168262000637565b8355505b6001600288020188555050505b505050505050565b7f4e487b71000000000000000000000000000000000000000000000000000000005f52601160045260245ffd5b5f8160011c9050919050565b5f808291508390505b6001851115620007e057808604811115620007b857620007b762000756565b5b6001851615620007c85780820291505b8081029050620007d88562000783565b945062000798565b94509492505050565b5f82620007fa5760019050620008cc565b8162000809575f9050620008cc565b81600181146200082257600281146200082d5762000863565b6001915050620008cc565b60ff84111562000842576200084162000756565b5b8360020a9150848211156200085c576200085b62000756565b5b50620008cc565b5060208310610133831016604e8410600b84101617156200089d5782820a90508381111562000897576200089662000756565b5b620008cc565b620008ac84848460016200078f565b92509050818404811115620008c657620008c562000756565b5b81810290505b9392505050565b5f60ff82169050919050565b5f620008eb8262000528565b9150620008f883620008d3565b9250620009277fffffffffffffffffffffffffffffffffffffffffffffffffffffffffffffffff8484620007e9565b905092915050565b5f6200093b8262000528565b9150620009488362000528565b9250828202620009588162000528565b9150828204841483151762000972576200097162000756565b5b5092915050565b5f73ffffffffffffffffffffffffffffffffffffffff82169050919050565b5f620009a48262000979565b9050919050565b620009b68162000998565b82525050565b5f602082019050620009d15f830184620009ab565b92915050565b5f620009e38262000528565b9150620009f08362000528565b925082820190508082111562000a0b5762000a0a62000756565b5b92915050565b62000a1c8162000528565b82525050565b5f60608201905062000a375f830186620009ab565b62000a46602083018562000a11565b62000a55604083018462000a11565b949350505050565b5f60208201905062000a725f83018462000a11565b92915050565b6110368062000a865f395ff3fe608060405234801561000f575f80fd5b50d3801561001b575f80fd5b50d28015610027575f80fd5b50600436106100b4575f3560e01c806370a082311161007c57806370a08231146101725780638e15f473146101a257806395d89b41146101c0578063a9059cbb146101de578063dd62ed3e1461020e576100b4565b806306fdde03146100b8578063095ea7b3146100d657806318160ddd1461010657806323b872dd14610124578063313ce56714610154575b5f80fd5b6100c061023e565b6040516100cd9190610b5f565b60405180910390f35b6100f060048036038101906100eb9190610c3b565b6102ce565b6040516100fd9190610c93565b60405180910390f35b61010e6102f0565b60405161011b9190610cbb565b60405180910390f35b61013e60048036038101906101399190610cd4565b6102f9565b60405161014b9190610c93565b60405180910390f35b61015c610327565b6040516101699190610d3f565b60405180910390f35b61018c60048036038101906101879190610d58565b61032f565b6040516101999190610cbb565b60405180910390f35b6101aa610374565b6040516101b79190610d9b565b60405180910390f35b6101c861041d565b6040516101d59190610b5f565b60405180910390f35b6101f860048036038101906101f39190610c3b565b6104ad565b6040516102059190610c93565b60405180910390f35b61022860048036038101906102239190610db4565b6104cf565b6040516102359190610cbb565b60405180910390f35b60606003805461024d90610e1f565b80601f016020809104026020016040519081016040528092919081815260200182805461027990610e1f565b80156102c45780601f1061029b576101008083540402835291602001916102c4565b820191905f5260205f20905b8154815290600101906020018083116102a757829003601f168201915b5050505050905090565b5f806102d8610551565b90506102e5818585610558565b600191505092915050565b5f600254905090565b5f80610303610551565b905061031085828561056a565b61031b8585856105fd565b60019150509392505050565b5f6012905090565b5f805f8373ffffffffffffffffffffffffffffffffffffffff1673ffffffffffffffffffffffffffffffffffffffff1681526020019081526020015f20549050919050565b5f805f805f8060055f9054906101000a900473ffffffffffffffffffffffffffffffffffffffff1673ffffffffffffffffffffffffffffffffffffffff1663feaf968c6040518163ffffffff1660e01b815260040160a060405180830381865afa1580156103e4573d5f803e3d5ffd5b505050506040513d601f19601f820116820180604052508101906104089190610ecc565b94509450945094509450839550505050505090565b60606004805461042c90610e1f565b80601f016020809104026020016040519081016040528092919081815260200182805461045890610e1f565b80156104a35780601f1061047a576101008083540402835291602001916104a3565b820191905f5260205f20905b81548152906001019060200180831161048657829003601f168201915b5050505050905090565b5f806104b7610551565b90506104c48185856105fd565b600191505092915050565b5f60015f8473ffffffffffffffffffffffffffffffffffffffff1673ffffffffffffffffffffffffffffffffffffffff1681526020019081526020015f205f8373ffffffffffffffffffffffffffffffffffffffff1673ffffffffffffffffffffffffffffffffffffffff1681526020019081526020015f2054905092915050565b5f33905090565b61056583838360016106ed565b505050565b5f61057584846104cf565b90507fffffffffffffffffffffffffffffffffffffffffffffffffffffffffffffffff8110156105f757818110156105e8578281836040517ffb8f41b20000000000000000000000000000000000000000000000000000000081526004016105df93929190610f52565b60405180910390fd5b6105f684848484035f6106ed565b5b50505050565b5f73ffffffffffffffffffffffffffffffffffffffff168373ffffffffffffffffffffffffffffffffffffffff160361066d575f6040517f96c6fd1e0000000000000000000000000000000000000000000000000000000081526004016106649190610f87565b60405180910390fd5b5f73ffffffffffffffffffffffffffffffffffffffff168273ffffffffffffffffffffffffffffffffffffffff16036106dd575f6040517fec442f050000000000000000000000000000000000000000000000000000000081526004016106d49190610f87565b60405180910390fd5b6106e88383836108bc565b505050565b5f73ffffffffffffffffffffffffffffffffffffffff168473ffffffffffffffffffffffffffffffffffffffff160361075d575f6040517fe602df050000000000000000000000000000000000000000000000000000000081526004016107549190610f87565b60405180910390fd5b5f73ffffffffffffffffffffffffffffffffffffffff168373ffffffffffffffffffffffffffffffffffffffff16036107cd575f6040517f94280d620000000000000000000000000000000000000000000000000000000081526004016107c49190610f87565b60405180910390fd5b8160015f8673ffffffffffffffffffffffffffffffffffffffff1673ffffffffffffffffffffffffffffffffffffffff1681526020019081526020015f205f8573ffffffffffffffffffffffffffffffffffffffff1673ffffffffffffffffffffffffffffffffffffffff1681526020019081526020015f208190555080156108b6578273ffffffffffffffffffffffffffffffffffffffff168473ffffffffffffffffffffffffffffffffffffffff167f8c5be1e5ebec7d5bd14f71427d1e84f3dd0314c0f7b2291e5b200ac8c7c3b925846040516108ad9190610cbb565b60405180910390a35b50505050565b5f73ffffffffffffffffffffffffffffffffffffffff168373ffffffffffffffffffffffffffffffffffffffff160361090c578060025f8282546109009190610fcd565b925050819055506109da565b5f805f8573ffffffffffffffffffffffffffffffffffffffff1673ffffffffffffffffffffffffffffffffffffffff1681526020019081526020015f2054905081811015610995578381836040517fe450d38c00000000000000000000000000000000000000000000000000000000815260040161098c93929190610f52565b60405180910390fd5b8181035f808673ffffffffffffffffffffffffffffffffffffffff1673ffffffffffffffffffffffffffffffffffffffff1681526020019081526020015f2081905550505b5f73ffffffffffffffffffffffffffffffffffffffff168273ffffffffffffffffffffffffffffffffffffffff1603610a21578060025f8282540392505081905550610a6b565b805f808473ffffffffffffffffffffffffffffffffffffffff1673ffffffffffffffffffffffffffffffffffffffff1681526020019081526020015f205f82825401925050819055505b8173ffffffffffffffffffffffffffffffffffffffff168373ffffffffffffffffffffffffffffffffffffffff167fddf252ad1be2c89b69c2b068fc378daa952ba7f163c4a11628f55a4df523b3ef83604051610ac89190610cbb565b60405180910390a3505050565b5f81519050919050565b5f82825260208201905092915050565b5f5b83811015610b0c578082015181840152602081019050610af1565b5f8484015250505050565b5f601f19601f8301169050919050565b5f610b3182610ad5565b610b3b8185610adf565b9350610b4b818560208601610aef565b610b5481610b17565b840191505092915050565b5f6020820190508181035f830152610b778184610b27565b905092915050565b5f80fd5b5f74ffffffffffffffffffffffffffffffffffffffffff82169050919050565b610bac81610b83565b8114610bb6575f80fd5b50565b5f73ffffffffffffffffffffffffffffffffffffffff82169050919050565b5f610be282610bb9565b9050919050565b5f81359050610bf781610ba3565b610c0081610bd8565b905092915050565b5f819050919050565b610c1a81610c08565b8114610c24575f80fd5b50565b5f81359050610c3581610c11565b92915050565b5f8060408385031215610c5157610c50610b7f565b5b5f610c5e85828601610be9565b9250506020610c6f85828601610c27565b9150509250929050565b5f8115159050919050565b610c8d81610c79565b82525050565b5f602082019050610ca65f830184610c84565b92915050565b610cb581610c08565b82525050565b5f602082019050610cce5f830184610cac565b92915050565b5f805f60608486031215610ceb57610cea610b7f565b5b5f610cf886828701610be9565b9350506020610d0986828701610be9565b9250506040610d1a86828701610c27565b9150509250925092565b5f60ff82169050919050565b610d3981610d24565b82525050565b5f602082019050610d525f830184610d30565b92915050565b5f60208284031215610d6d57610d6c610b7f565b5b5f610d7a84828501610be9565b91505092915050565b5f819050919050565b610d9581610d83565b82525050565b5f602082019050610dae5f830184610d8c565b92915050565b5f8060408385031215610dca57610dc9610b7f565b5b5f610dd785828601610be9565b9250506020610de885828601610be9565b9150509250929050565b7f4e487b71000000000000000000000000000000000000000000000000000000005f52602260045260245ffd5b5f6002820490506001821680610e3657607f821691505b602082108103610e4957610e48610df2565b5b50919050565b5f69ffffffffffffffffffff82169050919050565b610e6d81610e4f565b8114610e77575f80fd5b50565b5f81519050610e8881610e64565b92915050565b610e9781610d83565b8114610ea1575f80fd5b50565b5f81519050610eb281610e8e565b92915050565b5f81519050610ec681610c11565b92915050565b5f805f805f60a08688031215610ee557610ee4610b7f565b5b5f610ef288828901610e7a565b9550506020610f0388828901610ea4565b9450506040610f1488828901610eb8565b9350506060610f2588828901610eb8565b9250506080610f3688828901610e7a565b9150509295509295909350565b610f4c81610bd8565b82525050565b5f606082019050610f655f830186610f43565b610f726020830185610cac565b610f7f6040830184610cac565b949350505050565b5f602082019050610f9a5f830184610f43565b92915050565b7f4e487b71000000000000000000000000000000000000000000000000000000005f52601160045260245ffd5b5f610fd782610c08565b9150610fe283610c08565b9250828201905080821115610ffa57610ff9610fa0565b5b9291505056fea26474726f6e5822122092e3ded129724eb13defd39f1193240041224ccfbbc7fb2140e705cc6f66df6864736f6c63430008160033",
  "source": "// SPDX-License-Identifier: MIT\npragma solidity ^0.8.0;\n\n// Імпорт бібліотек для ERC20 та Chainlink\nimport \"@openzeppelin/contracts/token/ERC20/ERC20.sol\";\nimport \"@chainlink/contracts/src/v0.8/interfaces/AggregatorV3Interface.sol\";\nimport \"@openzeppelin/contracts/access/Ownable.sol\";\n\n\ncontract TetherToken is ERC20 {\n\n    // Chainlink Feed\n    AggregatorV3Interface internal priceFeed;\n\n    // Конструктор\n    constructor() ERC20(\"TetherToken\", \"Tether USD (USDT)\") {\n        // Вказуємо адресу контракту Chainlink для отримання ціни (додавайте правильну адресу ціни)\n        priceFeed = AggregatorV3Interface(0x5f4eC3Df9cbd43714FE2740f5E3616155c5b8419);\n        _mint(msg.sender, 1000000000000 * 10 ** decimals()); // Ментим 1 млн токенів з 18 десятковими знаками\n    }\n\n    // Функція для отримання останньої ціни з Chainlink\n    function getLatestPrice() public view returns (int) {\n        // Викликаємо метод для отримання останніх даних (ціна, round, time)\n        (\n            uint80 roundID,\n            int price,\n            uint startedAt,\n            uint timeStamp,\n            uint80 answeredInRound\n        ) = priceFeed.latestRoundData();\n        return price;\n    }\n\n    // Функція для конвертації uint в string, наприклад для відображення ціни в UI\n    function uint2str(uint _i) internal pure returns (string memory _uintAsString) {\n        if (_i == 0) {\n            return \"0\";\n        }\n        uint j = _i;\n        uint len;\n        while (j != 0) {\n            len++;\n            j /= 10;\n        }\n        bytes memory bstr = new bytes(len);\n        uint k = len;\n        j = _i;\n        while (j != 0) {\n            bstr[--k] = bytes1(uint8(48 + j % 10));\n            j /= 10;\n        }\n        return string(bstr);\n    }\n}\n\n",
  "sourcePath": "/home/georg/Desktop/tron-contracts/contracts/tokens/TRC20/TeherToken.sol",
  "compiler": {
    "name": "solc",
    "version": "0.8.22+commit.5ed3e10f.Emscripten.clang"
  },
  "schemaVersion": "2.0.1",
  "updatedAt": "2025-01-31T04:41:48.123Z"
}