{
  "contractName": "TRC20Capped",
  "abi": [
    {
      "inputs": [
        {
          "internalType": "uint256",
          "name": "cap_",
          "type": "uint256"
        }
      ],
      "stateMutability": "nonpayable",
      "type": "constructor"
    },
    {
      "anonymous": false,
      "inputs": [
        {
          "indexed": true,
          "internalType": "address",
          "name": "owner",
          "type": "address"
        },
        {
          "indexed": true,
          "internalType": "address",
          "name": "spender",
          "type": "address"
        },
        {
          "indexed": false,
          "internalType": "uint256",
          "name": "value",
          "type": "uint256"
        }
      ],
      "name": "Approval",
      "type": "event"
    },
    {
      "anonymous": false,
      "inputs": [
        {
          "indexed": true,
          "internalType": "address",
          "name": "account",
          "type": "address"
        }
      ],
      "name": "MinterAdded",
      "type": "event"
    },
    {
      "anonymous": false,
      "inputs": [
        {
          "indexed": true,
          "internalType": "address",
          "name": "account",
          "type": "address"
        }
      ],
      "name": "MinterRemoved",
      "type": "event"
    },
    {
      "anonymous": false,
      "inputs": [
        {
          "indexed": true,
          "internalType": "address",
          "name": "from",
          "type": "address"
        },
        {
          "indexed": true,
          "internalType": "address",
          "name": "to",
          "type": "address"
        },
        {
          "indexed": false,
          "internalType": "uint256",
          "name": "value",
          "type": "uint256"
        }
      ],
      "name": "Transfer",
      "type": "event"
    },
    {
      "inputs": [
        {
          "internalType": "address",
          "name": "account",
          "type": "address"
        }
      ],
      "name": "addMinter",
      "outputs": [],
      "stateMutability": "nonpayable",
      "type": "function"
    },
    {
      "inputs": [
        {
          "internalType": "address",
          "name": "owner",
          "type": "address"
        },
        {
          "internalType": "address",
          "name": "spender",
          "type": "address"
        }
      ],
      "name": "allowance",
      "outputs": [
        {
          "internalType": "uint256",
          "name": "",
          "type": "uint256"
        }
      ],
      "stateMutability": "view",
      "type": "function"
    },
    {
      "inputs": [
        {
          "internalType": "address",
          "name": "spender",
          "type": "address"
        },
        {
          "internalType": "uint256",
          "name": "value",
          "type": "uint256"
        }
      ],
      "name": "approve",
      "outputs": [
        {
          "internalType": "bool",
          "name": "",
          "type": "bool"
        }
      ],
      "stateMutability": "nonpayable",
      "type": "function"
    },
    {
      "inputs": [
        {
          "internalType": "address",
          "name": "owner",
          "type": "address"
        }
      ],
      "name": "balanceOf",
      "outputs": [
        {
          "internalType": "uint256",
          "name": "",
          "type": "uint256"
        }
      ],
      "stateMutability": "view",
      "type": "function"
    },
    {
      "inputs": [],
      "name": "cap",
      "outputs": [
        {
          "internalType": "uint256",
          "name": "",
          "type": "uint256"
        }
      ],
      "stateMutability": "view",
      "type": "function"
    },
    {
      "inputs": [
        {
          "internalType": "address",
          "name": "spender",
          "type": "address"
        },
        {
          "internalType": "uint256",
          "name": "subtractedValue",
          "type": "uint256"
        }
      ],
      "name": "decreaseAllowance",
      "outputs": [
        {
          "internalType": "bool",
          "name": "",
          "type": "bool"
        }
      ],
      "stateMutability": "nonpayable",
      "type": "function"
    },
    {
      "inputs": [
        {
          "internalType": "address",
          "name": "spender",
          "type": "address"
        },
        {
          "internalType": "uint256",
          "name": "addedValue",
          "type": "uint256"
        }
      ],
      "name": "increaseAllowance",
      "outputs": [
        {
          "internalType": "bool",
          "name": "",
          "type": "bool"
        }
      ],
      "stateMutability": "nonpayable",
      "type": "function"
    },
    {
      "inputs": [
        {
          "internalType": "address",
          "name": "account",
          "type": "address"
        }
      ],
      "name": "isMinter",
      "outputs": [
        {
          "internalType": "bool",
          "name": "",
          "type": "bool"
        }
      ],
      "stateMutability": "view",
      "type": "function"
    },
    {
      "inputs": [
        {
          "internalType": "address",
          "name": "to",
          "type": "address"
        },
        {
          "internalType": "uint256",
          "name": "value",
          "type": "uint256"
        }
      ],
      "name": "mint",
      "outputs": [
        {
          "internalType": "bool",
          "name": "",
          "type": "bool"
        }
      ],
      "stateMutability": "nonpayable",
      "type": "function"
    },
    {
      "inputs": [],
      "name": "renounceMinter",
      "outputs": [],
      "stateMutability": "nonpayable",
      "type": "function"
    },
    {
      "inputs": [],
      "name": "totalSupply",
      "outputs": [
        {
          "internalType": "uint256",
          "name": "",
          "type": "uint256"
        }
      ],
      "stateMutability": "view",
      "type": "function"
    },
    {
      "inputs": [
        {
          "internalType": "address",
          "name": "to",
          "type": "address"
        },
        {
          "internalType": "uint256",
          "name": "value",
          "type": "uint256"
        }
      ],
      "name": "transfer",
      "outputs": [
        {
          "internalType": "bool",
          "name": "",
          "type": "bool"
        }
      ],
      "stateMutability": "nonpayable",
      "type": "function"
    },
    {
      "inputs": [
        {
          "internalType": "address",
          "name": "from",
          "type": "address"
        },
        {
          "internalType": "address",
          "name": "to",
          "type": "address"
        },
        {
          "internalType": "uint256",
          "name": "value",
          "type": "uint256"
        }
      ],
      "name": "transferFrom",
      "outputs": [
        {
          "internalType": "bool",
          "name": "",
          "type": "bool"
        }
      ],
      "stateMutability": "nonpayable",
      "type": "function"
    }
  ],
  "bytecode": "0x608060405234801562000010575f80fd5b50d380156200001d575f80fd5b50d280156200002a575f80fd5b506040516200188838038062001888833981810160405281019062000050919062000286565b6200006133620000b460201b60201c565b5f8111620000a6576040517f08c379a00000000000000000000000000000000000000000000000000000000081526004016200009d9062000314565b60405180910390fd5b806004819055505062000334565b620000ca8160036200011060201b90919060201c565b8073ffffffffffffffffffffffffffffffffffffffff167f6ae172837ea30b801fbfcdd4108aa1d5bf8ff775444fd70256b44e6bf3dfc3f660405160405180910390a250565b5f73ffffffffffffffffffffffffffffffffffffffff168173ffffffffffffffffffffffffffffffffffffffff160362000148575f80fd5b6200015a8282620001be60201b60201c565b1562000164575f80fd5b6001825f015f8373ffffffffffffffffffffffffffffffffffffffff1673ffffffffffffffffffffffffffffffffffffffff1681526020019081526020015f205f6101000a81548160ff0219169083151502179055505050565b5f8073ffffffffffffffffffffffffffffffffffffffff168273ffffffffffffffffffffffffffffffffffffffff1603620001f7575f80fd5b825f015f8373ffffffffffffffffffffffffffffffffffffffff1673ffffffffffffffffffffffffffffffffffffffff1681526020019081526020015f205f9054906101000a900460ff16905092915050565b5f80fd5b5f819050919050565b62000262816200024e565b81146200026d575f80fd5b50565b5f81519050620002808162000257565b92915050565b5f602082840312156200029e576200029d6200024a565b5b5f620002ad8482850162000270565b91505092915050565b5f82825260208201905092915050565b7f436170206d7573742062652067726561746572207468616e20300000000000005f82015250565b5f620002fc601a83620002b6565b91506200030982620002c6565b602082019050919050565b5f6020820190508181035f8301526200032d81620002ee565b9050919050565b61154680620003425f395ff3fe608060405234801561000f575f80fd5b50d3801561001b575f80fd5b50d28015610027575f80fd5b50600436106100e5575f3560e01c806370a08231116100a2578063a457c2d71161007c578063a457c2d71461023b578063a9059cbb1461026b578063aa271e1a1461029b578063dd62ed3e146102cb576100e5565b806370a08231146101e5578063983b2d56146102155780639865027514610231576100e5565b8063095ea7b3146100e957806318160ddd1461011957806323b872dd14610137578063355274ea14610167578063395093511461018557806340c10f19146101b5575b5f80fd5b61010360048036038101906100fe919061124b565b6102fb565b60405161011091906112a3565b60405180910390f35b61012161041f565b60405161012e91906112cb565b60405180910390f35b610151600480360381019061014c91906112e4565b610428565b60405161015e91906112a3565b60405180910390f35b61016f610546565b60405161017c91906112cb565b60405180910390f35b61019f600480360381019061019a919061124b565b61054f565b6040516101ac91906112a3565b60405180910390f35b6101cf60048036038101906101ca919061124b565b610775565b6040516101dc91906112a3565b60405180910390f35b6101ff60048036038101906101fa9190611334565b6107d2565b60405161020c91906112cb565b60405180910390f35b61022f600480360381019061022a9190611334565b610817565b005b61023961086b565b005b6102556004803603810190610250919061124b565b610876565b60405161026291906112a3565b60405180910390f35b6102856004803603810190610280919061124b565b610a9c565b60405161029291906112a3565b60405180910390f35b6102b560048036038101906102b09190611334565b610ab2565b6040516102c291906112a3565b60405180910390f35b6102e560048036038101906102e0919061135f565b610ace565b6040516102f291906112cb565b60405180910390f35b5f8073ffffffffffffffffffffffffffffffffffffffff168373ffffffffffffffffffffffffffffffffffffffff1603610333575f80fd5b8160015f3373ffffffffffffffffffffffffffffffffffffffff1673ffffffffffffffffffffffffffffffffffffffff1681526020019081526020015f205f8573ffffffffffffffffffffffffffffffffffffffff1673ffffffffffffffffffffffffffffffffffffffff1681526020019081526020015f20819055508273ffffffffffffffffffffffffffffffffffffffff163373ffffffffffffffffffffffffffffffffffffffff167f8c5be1e5ebec7d5bd14f71427d1e84f3dd0314c0f7b2291e5b200ac8c7c3b9258460405161040d91906112cb565b60405180910390a36001905092915050565b5f600254905090565b5f6104b48260015f8773ffffffffffffffffffffffffffffffffffffffff1673ffffffffffffffffffffffffffffffffffffffff1681526020019081526020015f205f3373ffffffffffffffffffffffffffffffffffffffff1673ffffffffffffffffffffffffffffffffffffffff1681526020019081526020015f2054610b5090919063ffffffff16565b60015f8673ffffffffffffffffffffffffffffffffffffffff1673ffffffffffffffffffffffffffffffffffffffff1681526020019081526020015f205f3373ffffffffffffffffffffffffffffffffffffffff1673ffffffffffffffffffffffffffffffffffffffff1681526020019081526020015f208190555061053b848484610b76565b600190509392505050565b5f600454905090565b5f8073ffffffffffffffffffffffffffffffffffffffff168373ffffffffffffffffffffffffffffffffffffffff1603610587575f80fd5b6106128260015f3373ffffffffffffffffffffffffffffffffffffffff1673ffffffffffffffffffffffffffffffffffffffff1681526020019081526020015f205f8673ffffffffffffffffffffffffffffffffffffffff1673ffffffffffffffffffffffffffffffffffffffff1681526020019081526020015f2054610d3590919063ffffffff16565b60015f3373ffffffffffffffffffffffffffffffffffffffff1673ffffffffffffffffffffffffffffffffffffffff1681526020019081526020015f205f8573ffffffffffffffffffffffffffffffffffffffff1673ffffffffffffffffffffffffffffffffffffffff1681526020019081526020015f20819055508273ffffffffffffffffffffffffffffffffffffffff163373ffffffffffffffffffffffffffffffffffffffff167f8c5be1e5ebec7d5bd14f71427d1e84f3dd0314c0f7b2291e5b200ac8c7c3b92560015f3373ffffffffffffffffffffffffffffffffffffffff1673ffffffffffffffffffffffffffffffffffffffff1681526020019081526020015f205f8773ffffffffffffffffffffffffffffffffffffffff1673ffffffffffffffffffffffffffffffffffffffff1681526020019081526020015f205460405161076391906112cb565b60405180910390a36001905092915050565b5f61077f33610ab2565b6107be576040517f08c379a00000000000000000000000000000000000000000000000000000000081526004016107b5906113f7565b60405180910390fd5b6107c88383610d5b565b6001905092915050565b5f805f8373ffffffffffffffffffffffffffffffffffffffff1673ffffffffffffffffffffffffffffffffffffffff1681526020019081526020015f20549050919050565b61082033610ab2565b61085f576040517f08c379a0000000000000000000000000000000000000000000000000000000008152600401610856906113f7565b60405180910390fd5b61086881610dc0565b50565b61087433610e1a565b565b5f8073ffffffffffffffffffffffffffffffffffffffff168373ffffffffffffffffffffffffffffffffffffffff16036108ae575f80fd5b6109398260015f3373ffffffffffffffffffffffffffffffffffffffff1673ffffffffffffffffffffffffffffffffffffffff1681526020019081526020015f205f8673ffffffffffffffffffffffffffffffffffffffff1673ffffffffffffffffffffffffffffffffffffffff1681526020019081526020015f2054610b5090919063ffffffff16565b60015f3373ffffffffffffffffffffffffffffffffffffffff1673ffffffffffffffffffffffffffffffffffffffff1681526020019081526020015f205f8573ffffffffffffffffffffffffffffffffffffffff1673ffffffffffffffffffffffffffffffffffffffff1681526020019081526020015f20819055508273ffffffffffffffffffffffffffffffffffffffff163373ffffffffffffffffffffffffffffffffffffffff167f8c5be1e5ebec7d5bd14f71427d1e84f3dd0314c0f7b2291e5b200ac8c7c3b92560015f3373ffffffffffffffffffffffffffffffffffffffff1673ffffffffffffffffffffffffffffffffffffffff1681526020019081526020015f205f8773ffffffffffffffffffffffffffffffffffffffff1673ffffffffffffffffffffffffffffffffffffffff1681526020019081526020015f2054604051610a8a91906112cb565b60405180910390a36001905092915050565b5f610aa8338484610b76565b6001905092915050565b5f610ac7826003610e7490919063ffffffff16565b9050919050565b5f60015f8473ffffffffffffffffffffffffffffffffffffffff1673ffffffffffffffffffffffffffffffffffffffff1681526020019081526020015f205f8373ffffffffffffffffffffffffffffffffffffffff1673ffffffffffffffffffffffffffffffffffffffff1681526020019081526020015f2054905092915050565b5f82821115610b5d575f80fd5b5f8284610b6a9190611442565b90508091505092915050565b5f73ffffffffffffffffffffffffffffffffffffffff168273ffffffffffffffffffffffffffffffffffffffff1603610bad575f80fd5b610bfc815f808673ffffffffffffffffffffffffffffffffffffffff1673ffffffffffffffffffffffffffffffffffffffff1681526020019081526020015f2054610b5090919063ffffffff16565b5f808573ffffffffffffffffffffffffffffffffffffffff1673ffffffffffffffffffffffffffffffffffffffff1681526020019081526020015f2081905550610c8b815f808573ffffffffffffffffffffffffffffffffffffffff1673ffffffffffffffffffffffffffffffffffffffff1681526020019081526020015f2054610d3590919063ffffffff16565b5f808473ffffffffffffffffffffffffffffffffffffffff1673ffffffffffffffffffffffffffffffffffffffff1681526020019081526020015f20819055508173ffffffffffffffffffffffffffffffffffffffff168373ffffffffffffffffffffffffffffffffffffffff167fddf252ad1be2c89b69c2b068fc378daa952ba7f163c4a11628f55a4df523b3ef83604051610d2891906112cb565b60405180910390a3505050565b5f808284610d439190611475565b905083811015610d51575f80fd5b8091505092915050565b60045481610d6761041f565b610d719190611475565b1115610db2576040517f08c379a0000000000000000000000000000000000000000000000000000000008152600401610da9906114f2565b60405180910390fd5b610dbc8282610eff565b5050565b610dd481600361104990919063ffffffff16565b8073ffffffffffffffffffffffffffffffffffffffff167f6ae172837ea30b801fbfcdd4108aa1d5bf8ff775444fd70256b44e6bf3dfc3f660405160405180910390a250565b610e2e8160036110ed90919063ffffffff16565b8073ffffffffffffffffffffffffffffffffffffffff167fe94479a9f7e1952cc78f2d6baab678adc1b772d936c6583def489e524cb6669260405160405180910390a250565b5f8073ffffffffffffffffffffffffffffffffffffffff168273ffffffffffffffffffffffffffffffffffffffff1603610eac575f80fd5b825f015f8373ffffffffffffffffffffffffffffffffffffffff1673ffffffffffffffffffffffffffffffffffffffff1681526020019081526020015f205f9054906101000a900460ff16905092915050565b5f73ffffffffffffffffffffffffffffffffffffffff168273ffffffffffffffffffffffffffffffffffffffff1603610f36575f80fd5b610f4b81600254610d3590919063ffffffff16565b600281905550610fa0815f808573ffffffffffffffffffffffffffffffffffffffff1673ffffffffffffffffffffffffffffffffffffffff1681526020019081526020015f2054610d3590919063ffffffff16565b5f808473ffffffffffffffffffffffffffffffffffffffff1673ffffffffffffffffffffffffffffffffffffffff1681526020019081526020015f20819055508173ffffffffffffffffffffffffffffffffffffffff165f73ffffffffffffffffffffffffffffffffffffffff167fddf252ad1be2c89b69c2b068fc378daa952ba7f163c4a11628f55a4df523b3ef8360405161103d91906112cb565b60405180910390a35050565b5f73ffffffffffffffffffffffffffffffffffffffff168173ffffffffffffffffffffffffffffffffffffffff1603611080575f80fd5b61108a8282610e74565b15611093575f80fd5b6001825f015f8373ffffffffffffffffffffffffffffffffffffffff1673ffffffffffffffffffffffffffffffffffffffff1681526020019081526020015f205f6101000a81548160ff0219169083151502179055505050565b5f73ffffffffffffffffffffffffffffffffffffffff168173ffffffffffffffffffffffffffffffffffffffff1603611124575f80fd5b61112e8282610e74565b611136575f80fd5b5f825f015f8373ffffffffffffffffffffffffffffffffffffffff1673ffffffffffffffffffffffffffffffffffffffff1681526020019081526020015f205f6101000a81548160ff0219169083151502179055505050565b5f80fd5b5f74ffffffffffffffffffffffffffffffffffffffffff82169050919050565b6111bc81611193565b81146111c6575f80fd5b50565b5f73ffffffffffffffffffffffffffffffffffffffff82169050919050565b5f6111f2826111c9565b9050919050565b5f81359050611207816111b3565b611210816111e8565b905092915050565b5f819050919050565b61122a81611218565b8114611234575f80fd5b50565b5f8135905061124581611221565b92915050565b5f80604083850312156112615761126061118f565b5b5f61126e858286016111f9565b925050602061127f85828601611237565b9150509250929050565b5f8115159050919050565b61129d81611289565b82525050565b5f6020820190506112b65f830184611294565b92915050565b6112c581611218565b82525050565b5f6020820190506112de5f8301846112bc565b92915050565b5f805f606084860312156112fb576112fa61118f565b5b5f611308868287016111f9565b9350506020611319868287016111f9565b925050604061132a86828701611237565b9150509250925092565b5f602082840312156113495761134861118f565b5b5f611356848285016111f9565b91505092915050565b5f80604083850312156113755761137461118f565b5b5f611382858286016111f9565b9250506020611393858286016111f9565b9150509250929050565b5f82825260208201905092915050565b7f43616c6c6572206973206e6f742061206d696e7465722e0000000000000000005f82015250565b5f6113e160178361139d565b91506113ec826113ad565b602082019050919050565b5f6020820190508181035f83015261140e816113d5565b9050919050565b7f4e487b71000000000000000000000000000000000000000000000000000000005f52601160045260245ffd5b5f61144c82611218565b915061145783611218565b925082820390508181111561146f5761146e611415565b5b92915050565b5f61147f82611218565b915061148a83611218565b92508282019050808211156114a2576114a1611415565b5b92915050565b7f43617020657863656564656400000000000000000000000000000000000000005f82015250565b5f6114dc600c8361139d565b91506114e7826114a8565b602082019050919050565b5f6020820190508181035f830152611509816114d0565b905091905056fea26474726f6e58221220ec35e3d8925076684d63f6afb0d9af6273ad0d89548c465e32585abeea2d6b3964736f6c63430008160033",
  "source": "// SPDX-License-Identifier: MIT\n\npragma solidity ^0.8.0;\n\nimport \"./TRC20Mintable.sol\";\n\n/**\n * @title Capped token\n * @dev Mintable token with a token cap.\n */\ncontract TRC20Capped is TRC20Mintable {\n    uint256 private _cap;\n\n    // Constructor renamed parameter to avoid shadowing 'cap' function\n    constructor(uint256 cap_) {\n        require(cap_ > 0, \"Cap must be greater than 0\");\n        _cap = cap_;\n    }\n\n    /**\n     * @return the cap for the token minting.\n     */\n    function cap() public view returns (uint256) {\n        return _cap;\n    }\n\n    // Override _mint function with proper visibility\n    function _mint(address account, uint256 value) internal override {\n        require(totalSupply() + value <= _cap, \"Cap exceeded\");\n        super._mint(account, value);\n    }\n}\n\n",
  "sourcePath": "/home/georg/Desktop/tron-contracts/contracts/tokens/TRC20/TRC20Capped.sol",
  "compiler": {
    "name": "solc",
    "version": "0.8.22+commit.5ed3e10f.Emscripten.clang"
  },
  "schemaVersion": "2.0.1",
  "updatedAt": "2025-01-31T04:41:48.117Z"
}