{
  "contractName": "TRON",
  "abi": [
    {
      "inputs": [],
      "stateMutability": "nonpayable",
      "type": "constructor"
    },
    {
      "inputs": [
        {
          "internalType": "address",
          "name": "spender",
          "type": "address"
        },
        {
          "internalType": "uint256",
          "name": "allowance",
          "type": "uint256"
        },
        {
          "internalType": "uint256",
          "name": "needed",
          "type": "uint256"
        }
      ],
      "name": "ERC20InsufficientAllowance",
      "type": "error"
    },
    {
      "inputs": [
        {
          "internalType": "address",
          "name": "sender",
          "type": "address"
        },
        {
          "internalType": "uint256",
          "name": "balance",
          "type": "uint256"
        },
        {
          "internalType": "uint256",
          "name": "needed",
          "type": "uint256"
        }
      ],
      "name": "ERC20InsufficientBalance",
      "type": "error"
    },
    {
      "inputs": [
        {
          "internalType": "address",
          "name": "approver",
          "type": "address"
        }
      ],
      "name": "ERC20InvalidApprover",
      "type": "error"
    },
    {
      "inputs": [
        {
          "internalType": "address",
          "name": "receiver",
          "type": "address"
        }
      ],
      "name": "ERC20InvalidReceiver",
      "type": "error"
    },
    {
      "inputs": [
        {
          "internalType": "address",
          "name": "sender",
          "type": "address"
        }
      ],
      "name": "ERC20InvalidSender",
      "type": "error"
    },
    {
      "inputs": [
        {
          "internalType": "address",
          "name": "spender",
          "type": "address"
        }
      ],
      "name": "ERC20InvalidSpender",
      "type": "error"
    },
    {
      "inputs": [
        {
          "internalType": "address",
          "name": "owner",
          "type": "address"
        }
      ],
      "name": "OwnableInvalidOwner",
      "type": "error"
    },
    {
      "inputs": [
        {
          "internalType": "address",
          "name": "account",
          "type": "address"
        }
      ],
      "name": "OwnableUnauthorizedAccount",
      "type": "error"
    },
    {
      "anonymous": false,
      "inputs": [
        {
          "indexed": true,
          "internalType": "address",
          "name": "owner",
          "type": "address"
        },
        {
          "indexed": true,
          "internalType": "address",
          "name": "spender",
          "type": "address"
        },
        {
          "indexed": false,
          "internalType": "uint256",
          "name": "value",
          "type": "uint256"
        }
      ],
      "name": "Approval",
      "type": "event"
    },
    {
      "anonymous": false,
      "inputs": [
        {
          "indexed": true,
          "internalType": "address",
          "name": "previousOwner",
          "type": "address"
        },
        {
          "indexed": true,
          "internalType": "address",
          "name": "newOwner",
          "type": "address"
        }
      ],
      "name": "OwnershipTransferred",
      "type": "event"
    },
    {
      "anonymous": false,
      "inputs": [
        {
          "indexed": true,
          "internalType": "address",
          "name": "from",
          "type": "address"
        },
        {
          "indexed": true,
          "internalType": "address",
          "name": "to",
          "type": "address"
        },
        {
          "indexed": false,
          "internalType": "uint256",
          "name": "value",
          "type": "uint256"
        }
      ],
      "name": "Transfer",
      "type": "event"
    },
    {
      "inputs": [
        {
          "internalType": "address",
          "name": "owner",
          "type": "address"
        },
        {
          "internalType": "address",
          "name": "spender",
          "type": "address"
        }
      ],
      "name": "allowance",
      "outputs": [
        {
          "internalType": "uint256",
          "name": "",
          "type": "uint256"
        }
      ],
      "stateMutability": "view",
      "type": "function"
    },
    {
      "inputs": [
        {
          "internalType": "address",
          "name": "spender",
          "type": "address"
        },
        {
          "internalType": "uint256",
          "name": "value",
          "type": "uint256"
        }
      ],
      "name": "approve",
      "outputs": [
        {
          "internalType": "bool",
          "name": "",
          "type": "bool"
        }
      ],
      "stateMutability": "nonpayable",
      "type": "function"
    },
    {
      "inputs": [
        {
          "internalType": "address",
          "name": "account",
          "type": "address"
        }
      ],
      "name": "balanceOf",
      "outputs": [
        {
          "internalType": "uint256",
          "name": "",
          "type": "uint256"
        }
      ],
      "stateMutability": "view",
      "type": "function"
    },
    {
      "inputs": [],
      "name": "decimals",
      "outputs": [
        {
          "internalType": "uint8",
          "name": "",
          "type": "uint8"
        }
      ],
      "stateMutability": "view",
      "type": "function"
    },
    {
      "inputs": [],
      "name": "getPrice",
      "outputs": [
        {
          "internalType": "int256",
          "name": "",
          "type": "int256"
        }
      ],
      "stateMutability": "view",
      "type": "function"
    },
    {
      "inputs": [],
      "name": "getTokenImageURL",
      "outputs": [
        {
          "internalType": "string",
          "name": "",
          "type": "string"
        }
      ],
      "stateMutability": "view",
      "type": "function"
    },
    {
      "inputs": [],
      "name": "name",
      "outputs": [
        {
          "internalType": "string",
          "name": "",
          "type": "string"
        }
      ],
      "stateMutability": "view",
      "type": "function"
    },
    {
      "inputs": [],
      "name": "owner",
      "outputs": [
        {
          "internalType": "address",
          "name": "",
          "type": "address"
        }
      ],
      "stateMutability": "view",
      "type": "function"
    },
    {
      "inputs": [],
      "name": "renounceOwnership",
      "outputs": [],
      "stateMutability": "nonpayable",
      "type": "function"
    },
    {
      "inputs": [
        {
          "internalType": "string",
          "name": "_url",
          "type": "string"
        }
      ],
      "name": "setTokenImageURL",
      "outputs": [],
      "stateMutability": "nonpayable",
      "type": "function"
    },
    {
      "inputs": [],
      "name": "symbol",
      "outputs": [
        {
          "internalType": "string",
          "name": "",
          "type": "string"
        }
      ],
      "stateMutability": "view",
      "type": "function"
    },
    {
      "inputs": [],
      "name": "tokenPrice",
      "outputs": [
        {
          "internalType": "uint256",
          "name": "",
          "type": "uint256"
        }
      ],
      "stateMutability": "view",
      "type": "function"
    },
    {
      "inputs": [],
      "name": "totalSupply",
      "outputs": [
        {
          "internalType": "uint256",
          "name": "",
          "type": "uint256"
        }
      ],
      "stateMutability": "view",
      "type": "function"
    },
    {
      "inputs": [
        {
          "internalType": "address",
          "name": "to",
          "type": "address"
        },
        {
          "internalType": "uint256",
          "name": "value",
          "type": "uint256"
        }
      ],
      "name": "transfer",
      "outputs": [
        {
          "internalType": "bool",
          "name": "",
          "type": "bool"
        }
      ],
      "stateMutability": "nonpayable",
      "type": "function"
    },
    {
      "inputs": [
        {
          "internalType": "address",
          "name": "from",
          "type": "address"
        },
        {
          "internalType": "address",
          "name": "to",
          "type": "address"
        },
        {
          "internalType": "uint256",
          "name": "value",
          "type": "uint256"
        }
      ],
      "name": "transferFrom",
      "outputs": [
        {
          "internalType": "bool",
          "name": "",
          "type": "bool"
        }
      ],
      "stateMutability": "nonpayable",
      "type": "function"
    },
    {
      "inputs": [
        {
          "internalType": "address",
          "name": "newOwner",
          "type": "address"
        }
      ],
      "name": "transferOwnership",
      "outputs": [],
      "stateMutability": "nonpayable",
      "type": "function"
    },
    {
      "inputs": [],
      "name": "updateTokenPrice",
      "outputs": [],
      "stateMutability": "nonpayable",
      "type": "function"
    }
  ],
  "bytecode": "0x608060405234801562000010575f80fd5b50d380156200001d575f80fd5b50d280156200002a575f80fd5b50336040518060400160405280600881526020017f55534454414c45580000000000000000000000000000000000000000000000008152506040518060400160405280600381526020017f54525800000000000000000000000000000000000000000000000000000000008152508160039081620000a99190620007c8565b508060049081620000bb9190620007c8565b5050505f73ffffffffffffffffffffffffffffffffffffffff168173ffffffffffffffffffffffffffffffffffffffff160362000131575f6040517f1e4fbdf7000000000000000000000000000000000000000000000000000000008152600401620001289190620008ef565b60405180910390fd5b6200014281620001eb60201b60201c565b50670de0b6b3a7640000600781905550735f4ec3df9cbd43714fe2740f5e3616155c5b841960065f6101000a81548173ffffffffffffffffffffffffffffffffffffffff021916908373ffffffffffffffffffffffffffffffffffffffff160217905550620001e533620001bb620002ae60201b60201c565b600a620001c9919062000a93565b620f4240620001d9919062000ae3565b620002b660201b60201c565b62000bce565b5f60055f9054906101000a900473ffffffffffffffffffffffffffffffffffffffff1690508160055f6101000a81548173ffffffffffffffffffffffffffffffffffffffff021916908373ffffffffffffffffffffffffffffffffffffffff1602179055508173ffffffffffffffffffffffffffffffffffffffff168173ffffffffffffffffffffffffffffffffffffffff167f8be0079c531659141344cd1fd0a4f28419497f9722a3daafe3b4186f6b6457e060405160405180910390a35050565b5f6012905090565b5f73ffffffffffffffffffffffffffffffffffffffff168273ffffffffffffffffffffffffffffffffffffffff160362000329575f6040517fec442f05000000000000000000000000000000000000000000000000000000008152600401620003209190620008ef565b60405180910390fd5b6200033c5f83836200034060201b60201c565b5050565b5f73ffffffffffffffffffffffffffffffffffffffff168373ffffffffffffffffffffffffffffffffffffffff160362000394578060025f82825462000387919062000b2d565b9250508190555062000465565b5f805f8573ffffffffffffffffffffffffffffffffffffffff1673ffffffffffffffffffffffffffffffffffffffff1681526020019081526020015f205490508181101562000420578381836040517fe450d38c000000000000000000000000000000000000000000000000000000008152600401620004179392919062000b78565b60405180910390fd5b8181035f808673ffffffffffffffffffffffffffffffffffffffff1673ffffffffffffffffffffffffffffffffffffffff1681526020019081526020015f2081905550505b5f73ffffffffffffffffffffffffffffffffffffffff168273ffffffffffffffffffffffffffffffffffffffff1603620004ae578060025f8282540392505081905550620004f8565b805f808473ffffffffffffffffffffffffffffffffffffffff1673ffffffffffffffffffffffffffffffffffffffff1681526020019081526020015f205f82825401925050819055505b8173ffffffffffffffffffffffffffffffffffffffff168373ffffffffffffffffffffffffffffffffffffffff167fddf252ad1be2c89b69c2b068fc378daa952ba7f163c4a11628f55a4df523b3ef8360405162000557919062000bb3565b60405180910390a3505050565b5f81519050919050565b7f4e487b71000000000000000000000000000000000000000000000000000000005f52604160045260245ffd5b7f4e487b71000000000000000000000000000000000000000000000000000000005f52602260045260245ffd5b5f6002820490506001821680620005e057607f821691505b602082108103620005f657620005f56200059b565b5b50919050565b5f819050815f5260205f209050919050565b5f6020601f8301049050919050565b5f82821b905092915050565b5f600883026200065a7fffffffffffffffffffffffffffffffffffffffffffffffffffffffffffffffff826200061d565b6200066686836200061d565b95508019841693508086168417925050509392505050565b5f819050919050565b5f819050919050565b5f620006b0620006aa620006a4846200067e565b62000687565b6200067e565b9050919050565b5f819050919050565b620006cb8362000690565b620006e3620006da82620006b7565b84845462000629565b825550505050565b5f90565b620006f9620006eb565b62000706818484620006c0565b505050565b5b818110156200072d57620007215f82620006ef565b6001810190506200070c565b5050565b601f8211156200077c576200074681620005fc565b62000751846200060e565b8101602085101562000761578190505b6200077962000770856200060e565b8301826200070b565b50505b505050565b5f82821c905092915050565b5f6200079e5f198460080262000781565b1980831691505092915050565b5f620007b883836200078d565b9150826002028217905092915050565b620007d38262000564565b67ffffffffffffffff811115620007ef57620007ee6200056e565b5b620007fb8254620005c8565b6200080882828562000731565b5f60209050601f8311600181146200083e575f841562000829578287015190505b620008358582620007ab565b865550620008a4565b601f1984166200084e86620005fc565b5f5b82811015620008775784890151825560018201915060208501945060208101905062000850565b8683101562000897578489015162000893601f8916826200078d565b8355505b6001600288020188555050505b505050505050565b5f73ffffffffffffffffffffffffffffffffffffffff82169050919050565b5f620008d782620008ac565b9050919050565b620008e981620008cb565b82525050565b5f602082019050620009045f830184620008de565b92915050565b7f4e487b71000000000000000000000000000000000000000000000000000000005f52601160045260245ffd5b5f8160011c9050919050565b5f808291508390505b600185111562000994578086048111156200096c576200096b6200090a565b5b60018516156200097c5780820291505b80810290506200098c8562000937565b94506200094c565b94509492505050565b5f82620009ae576001905062000a80565b81620009bd575f905062000a80565b8160018114620009d65760028114620009e15762000a17565b600191505062000a80565b60ff841115620009f657620009f56200090a565b5b8360020a91508482111562000a105762000a0f6200090a565b5b5062000a80565b5060208310610133831016604e8410600b841016171562000a515782820a90508381111562000a4b5762000a4a6200090a565b5b62000a80565b62000a60848484600162000943565b9250905081840481111562000a7a5762000a796200090a565b5b81810290505b9392505050565b5f60ff82169050919050565b5f62000a9f826200067e565b915062000aac8362000a87565b925062000adb7fffffffffffffffffffffffffffffffffffffffffffffffffffffffffffffffff84846200099d565b905092915050565b5f62000aef826200067e565b915062000afc836200067e565b925082820262000b0c816200067e565b9150828204841483151762000b265762000b256200090a565b5b5092915050565b5f62000b39826200067e565b915062000b46836200067e565b925082820190508082111562000b615762000b606200090a565b5b92915050565b62000b72816200067e565b82525050565b5f60608201905062000b8d5f830186620008de565b62000b9c602083018562000b67565b62000bab604083018462000b67565b949350505050565b5f60208201905062000bc85f83018462000b67565b92915050565b6118a28062000bdc5f395ff3fe608060405234801561000f575f80fd5b50d3801561001b575f80fd5b50d28015610027575f80fd5b5060043610610121575f3560e01c8063715018a6116100b857806398d5fdca1161008757806398d5fdca14610299578063a9059cbb146102b7578063c71473e7146102e7578063dd62ed3e14610305578063f2fde38b1461033557610121565b8063715018a6146102355780637ff9b5961461023f5780638da5cb5b1461025d57806395d89b411461027b57610121565b80631c8c3324116100f45780631c8c33241461019b57806323b872dd146101b7578063313ce567146101e757806370a082311461020557610121565b806306fdde03146101255780630790c53714610143578063095ea7b31461014d57806318160ddd1461017d575b5f80fd5b61012d610351565b60405161013a9190610f77565b60405180910390f35b61014b6103e1565b005b61016760048036038101906101629190611060565b610438565b60405161017491906110b8565b60405180910390f35b61018561045a565b60405161019291906110e0565b60405180910390f35b6101b560048036038101906101b09190611225565b610463565b005b6101d160048036038101906101cc919061126c565b61047e565b6040516101de91906110b8565b60405180910390f35b6101ef6104ac565b6040516101fc91906112d7565b60405180910390f35b61021f600480360381019061021a91906112f0565b6104b4565b60405161022c91906110e0565b60405180910390f35b61023d6104f9565b005b61024761050c565b60405161025491906110e0565b60405180910390f35b610265610512565b604051610272919061132a565b60405180910390f35b61028361053a565b6040516102909190610f77565b60405180910390f35b6102a16105ca565b6040516102ae919061135b565b60405180910390f35b6102d160048036038101906102cc9190611060565b610667565b6040516102de91906110b8565b60405180910390f35b6102ef610689565b6040516102fc9190610f77565b60405180910390f35b61031f600480360381019061031a9190611374565b610719565b60405161032c91906110e0565b60405180910390f35b61034f600480360381019061034a91906112f0565b61079b565b005b606060038054610360906113df565b80601f016020809104026020016040519081016040528092919081815260200182805461038c906113df565b80156103d75780601f106103ae576101008083540402835291602001916103d7565b820191905f5260205f20905b8154815290600101906020018083116103ba57829003601f168201915b5050505050905090565b5f6103ea6105ca565b90505f811361042e576040517f08c379a000000000000000000000000000000000000000000000000000000000815260040161042590611459565b60405180910390fd5b8060078190555050565b5f8061044261081f565b905061044f818585610826565b600191505092915050565b5f600254905090565b61046b610838565b806008908161047a9190611614565b5050565b5f8061048861081f565b90506104958582856108bf565b6104a0858585610952565b60019150509392505050565b5f6012905090565b5f805f8373ffffffffffffffffffffffffffffffffffffffff1673ffffffffffffffffffffffffffffffffffffffff1681526020019081526020015f20549050919050565b610501610838565b61050a5f610a42565b565b60075481565b5f60055f9054906101000a900473ffffffffffffffffffffffffffffffffffffffff16905090565b606060048054610549906113df565b80601f0160208091040260200160405190810160405280929190818152602001828054610575906113df565b80156105c05780601f10610597576101008083540402835291602001916105c0565b820191905f5260205f20905b8154815290600101906020018083116105a357829003601f168201915b5050505050905090565b5f8060065f9054906101000a900473ffffffffffffffffffffffffffffffffffffffff1673ffffffffffffffffffffffffffffffffffffffff1663feaf968c6040518163ffffffff1660e01b815260040160a060405180830381865afa158015610636573d5f803e3d5ffd5b505050506040513d601f19601f8201168201806040525081019061065a9190611760565b5050509150508091505090565b5f8061067161081f565b905061067e818585610952565b600191505092915050565b606060088054610698906113df565b80601f01602080910402602001604051908101604052809291908181526020018280546106c4906113df565b801561070f5780601f106106e65761010080835404028352916020019161070f565b820191905f5260205f20905b8154815290600101906020018083116106f257829003601f168201915b5050505050905090565b5f60015f8473ffffffffffffffffffffffffffffffffffffffff1673ffffffffffffffffffffffffffffffffffffffff1681526020019081526020015f205f8373ffffffffffffffffffffffffffffffffffffffff1673ffffffffffffffffffffffffffffffffffffffff1681526020019081526020015f2054905092915050565b6107a3610838565b5f73ffffffffffffffffffffffffffffffffffffffff168173ffffffffffffffffffffffffffffffffffffffff1603610813575f6040517f1e4fbdf700000000000000000000000000000000000000000000000000000000815260040161080a919061132a565b60405180910390fd5b61081c81610a42565b50565b5f33905090565b6108338383836001610b05565b505050565b61084061081f565b73ffffffffffffffffffffffffffffffffffffffff1661085e610512565b73ffffffffffffffffffffffffffffffffffffffff16146108bd5761088161081f565b6040517f118cdaa70000000000000000000000000000000000000000000000000000000081526004016108b4919061132a565b60405180910390fd5b565b5f6108ca8484610719565b90507fffffffffffffffffffffffffffffffffffffffffffffffffffffffffffffffff81101561094c578181101561093d578281836040517ffb8f41b2000000000000000000000000000000000000000000000000000000008152600401610934939291906117d7565b60405180910390fd5b61094b84848484035f610b05565b5b50505050565b5f73ffffffffffffffffffffffffffffffffffffffff168373ffffffffffffffffffffffffffffffffffffffff16036109c2575f6040517f96c6fd1e0000000000000000000000000000000000000000000000000000000081526004016109b9919061132a565b60405180910390fd5b5f73ffffffffffffffffffffffffffffffffffffffff168273ffffffffffffffffffffffffffffffffffffffff1603610a32575f6040517fec442f05000000000000000000000000000000000000000000000000000000008152600401610a29919061132a565b60405180910390fd5b610a3d838383610cd4565b505050565b5f60055f9054906101000a900473ffffffffffffffffffffffffffffffffffffffff1690508160055f6101000a81548173ffffffffffffffffffffffffffffffffffffffff021916908373ffffffffffffffffffffffffffffffffffffffff1602179055508173ffffffffffffffffffffffffffffffffffffffff168173ffffffffffffffffffffffffffffffffffffffff167f8be0079c531659141344cd1fd0a4f28419497f9722a3daafe3b4186f6b6457e060405160405180910390a35050565b5f73ffffffffffffffffffffffffffffffffffffffff168473ffffffffffffffffffffffffffffffffffffffff1603610b75575f6040517fe602df05000000000000000000000000000000000000000000000000000000008152600401610b6c919061132a565b60405180910390fd5b5f73ffffffffffffffffffffffffffffffffffffffff168373ffffffffffffffffffffffffffffffffffffffff1603610be5575f6040517f94280d62000000000000000000000000000000000000000000000000000000008152600401610bdc919061132a565b60405180910390fd5b8160015f8673ffffffffffffffffffffffffffffffffffffffff1673ffffffffffffffffffffffffffffffffffffffff1681526020019081526020015f205f8573ffffffffffffffffffffffffffffffffffffffff1673ffffffffffffffffffffffffffffffffffffffff1681526020019081526020015f20819055508015610cce578273ffffffffffffffffffffffffffffffffffffffff168473ffffffffffffffffffffffffffffffffffffffff167f8c5be1e5ebec7d5bd14f71427d1e84f3dd0314c0f7b2291e5b200ac8c7c3b92584604051610cc591906110e0565b60405180910390a35b50505050565b5f73ffffffffffffffffffffffffffffffffffffffff168373ffffffffffffffffffffffffffffffffffffffff1603610d24578060025f828254610d189190611839565b92505081905550610df2565b5f805f8573ffffffffffffffffffffffffffffffffffffffff1673ffffffffffffffffffffffffffffffffffffffff1681526020019081526020015f2054905081811015610dad578381836040517fe450d38c000000000000000000000000000000000000000000000000000000008152600401610da4939291906117d7565b60405180910390fd5b8181035f808673ffffffffffffffffffffffffffffffffffffffff1673ffffffffffffffffffffffffffffffffffffffff1681526020019081526020015f2081905550505b5f73ffffffffffffffffffffffffffffffffffffffff168273ffffffffffffffffffffffffffffffffffffffff1603610e39578060025f8282540392505081905550610e83565b805f808473ffffffffffffffffffffffffffffffffffffffff1673ffffffffffffffffffffffffffffffffffffffff1681526020019081526020015f205f82825401925050819055505b8173ffffffffffffffffffffffffffffffffffffffff168373ffffffffffffffffffffffffffffffffffffffff167fddf252ad1be2c89b69c2b068fc378daa952ba7f163c4a11628f55a4df523b3ef83604051610ee091906110e0565b60405180910390a3505050565b5f81519050919050565b5f82825260208201905092915050565b5f5b83811015610f24578082015181840152602081019050610f09565b5f8484015250505050565b5f601f19601f8301169050919050565b5f610f4982610eed565b610f538185610ef7565b9350610f63818560208601610f07565b610f6c81610f2f565b840191505092915050565b5f6020820190508181035f830152610f8f8184610f3f565b905092915050565b5f604051905090565b5f80fd5b5f80fd5b5f74ffffffffffffffffffffffffffffffffffffffffff82169050919050565b610fd181610fa8565b8114610fdb575f80fd5b50565b5f73ffffffffffffffffffffffffffffffffffffffff82169050919050565b5f61100782610fde565b9050919050565b5f8135905061101c81610fc8565b61102581610ffd565b905092915050565b5f819050919050565b61103f8161102d565b8114611049575f80fd5b50565b5f8135905061105a81611036565b92915050565b5f806040838503121561107657611075610fa0565b5b5f6110838582860161100e565b92505060206110948582860161104c565b9150509250929050565b5f8115159050919050565b6110b28161109e565b82525050565b5f6020820190506110cb5f8301846110a9565b92915050565b6110da8161102d565b82525050565b5f6020820190506110f35f8301846110d1565b92915050565b5f80fd5b5f80fd5b7f4e487b71000000000000000000000000000000000000000000000000000000005f52604160045260245ffd5b61113782610f2f565b810181811067ffffffffffffffff8211171561115657611155611101565b5b80604052505050565b5f611168610f97565b9050611174828261112e565b919050565b5f67ffffffffffffffff82111561119357611192611101565b5b61119c82610f2f565b9050602081019050919050565b828183375f83830152505050565b5f6111c96111c484611179565b61115f565b9050828152602081018484840111156111e5576111e46110fd565b5b6111f08482856111a9565b509392505050565b5f82601f83011261120c5761120b6110f9565b5b813561121c8482602086016111b7565b91505092915050565b5f6020828403121561123a57611239610fa0565b5b5f82013567ffffffffffffffff81111561125757611256610fa4565b5b611263848285016111f8565b91505092915050565b5f805f6060848603121561128357611282610fa0565b5b5f6112908682870161100e565b93505060206112a18682870161100e565b92505060406112b28682870161104c565b9150509250925092565b5f60ff82169050919050565b6112d1816112bc565b82525050565b5f6020820190506112ea5f8301846112c8565b92915050565b5f6020828403121561130557611304610fa0565b5b5f6113128482850161100e565b91505092915050565b61132481610ffd565b82525050565b5f60208201905061133d5f83018461131b565b92915050565b5f819050919050565b61135581611343565b82525050565b5f60208201905061136e5f83018461134c565b92915050565b5f806040838503121561138a57611389610fa0565b5b5f6113978582860161100e565b92505060206113a88582860161100e565b9150509250929050565b7f4e487b71000000000000000000000000000000000000000000000000000000005f52602260045260245ffd5b5f60028204905060018216806113f657607f821691505b602082108103611409576114086113b2565b5b50919050565b7f496e76616c6964207072696365000000000000000000000000000000000000005f82015250565b5f611443600d83610ef7565b915061144e8261140f565b602082019050919050565b5f6020820190508181035f83015261147081611437565b9050919050565b5f819050815f5260205f209050919050565b5f6020601f8301049050919050565b5f82821b905092915050565b5f600883026114d37fffffffffffffffffffffffffffffffffffffffffffffffffffffffffffffffff82611498565b6114dd8683611498565b95508019841693508086168417925050509392505050565b5f819050919050565b5f61151861151361150e8461102d565b6114f5565b61102d565b9050919050565b5f819050919050565b611531836114fe565b61154561153d8261151f565b8484546114a4565b825550505050565b5f90565b61155961154d565b611564818484611528565b505050565b5b818110156115875761157c5f82611551565b60018101905061156a565b5050565b601f8211156115cc5761159d81611477565b6115a684611489565b810160208510156115b5578190505b6115c96115c185611489565b830182611569565b50505b505050565b5f82821c905092915050565b5f6115ec5f19846008026115d1565b1980831691505092915050565b5f61160483836115dd565b9150826002028217905092915050565b61161d82610eed565b67ffffffffffffffff81111561163657611635611101565b5b61164082546113df565b61164b82828561158b565b5f60209050601f83116001811461167c575f841561166a578287015190505b61167485826115f9565b8655506116db565b601f19841661168a86611477565b5f5b828110156116b15784890151825560018201915060208501945060208101905061168c565b868310156116ce57848901516116ca601f8916826115dd565b8355505b6001600288020188555050505b505050505050565b5f69ffffffffffffffffffff82169050919050565b611701816116e3565b811461170b575f80fd5b50565b5f8151905061171c816116f8565b92915050565b61172b81611343565b8114611735575f80fd5b50565b5f8151905061174681611722565b92915050565b5f8151905061175a81611036565b92915050565b5f805f805f60a0868803121561177957611778610fa0565b5b5f6117868882890161170e565b955050602061179788828901611738565b94505060406117a88882890161174c565b93505060606117b98882890161174c565b92505060806117ca8882890161170e565b9150509295509295909350565b5f6060820190506117ea5f83018661131b565b6117f760208301856110d1565b61180460408301846110d1565b949350505050565b7f4e487b71000000000000000000000000000000000000000000000000000000005f52601160045260245ffd5b5f6118438261102d565b915061184e8361102d565b92508282019050808211156118665761186561180c565b5b9291505056fea26474726f6e582212201f2c0cd160e15f7cd7115e0b2ad8fe9930f1364f4cbcf9338fd6e9641102c45364736f6c63430008160033",
  "source": "// SPDX-License-Identifier: MIT\npragma solidity ^0.8.0;\n\n//   \nimport \"@openzeppelin/contracts/token/ERC20/ERC20.sol\";\nimport \"@chainlink/contracts/src/v0.8/interfaces/AggregatorV3Interface.sol\";\nimport \"@openzeppelin/contracts/access/Ownable.sol\";\n\ncontract TRON is ERC20, Ownable {\n    AggregatorV3Interface internal priceFeed; //      Chainlink\n    uint256 public tokenPrice; //    USD (  )\n    string private tokenImageURL; // URL  \n\n    //  \n    constructor() ERC20(\"USDTALEX\", \"TRX\") Ownable(msg.sender) {\n        tokenPrice = 1 * 10**18; //    (, 1 USD)\n        priceFeed = AggregatorV3Interface(0x5f4eC3Df9cbd43714FE2740f5E3616155c5b8419); //  Chainlink Oracle (  )\n        _mint(msg.sender, 1000000 * 10**decimals()); //    \n    }\n\n    //       Chainlink\n    function updateTokenPrice() public {\n        int price = getPrice(); //    Chainlink\n        require(price > 0, \"Invalid price\"); // ,   \n        tokenPrice = uint256(price); //   \n    }\n\n    //      Chainlink\n    function getPrice() public view returns (int) {\n        (\n            /* uint80 roundID */,\n            int price,\n            /* uint startedAt */,\n            /* uint timeStamp */,\n            /* uint80 answeredInRound */\n        ) = priceFeed.latestRoundData(); //    Oracle\n        return price;\n    }\n\n    //    URL   (  )\n    function setTokenImageURL(string memory _url) public onlyOwner {\n        tokenImageURL = _url;\n    }\n\n    //    URL  \n    function getTokenImageURL() public view returns (string memory) {\n        return tokenImageURL;\n    }\n}\n",
  "sourcePath": "/home/georg/Desktop/tron-contracts/contracts/tokens/TRC20/Tether USD (USDT).sol",
  "compiler": {
    "name": "solc",
    "version": "0.8.22+commit.5ed3e10f.Emscripten.clang"
  },
  "schemaVersion": "2.0.1",
  "updatedAt": "2025-01-31T04:44:35.446Z"
}